:100000000C945D000C9485000C9485000C94850084
:100010000C9485000C9485000C9485000C9485004C
:100020000C9485000C9485000C9485000C9485003C
:100030000C9485000C9485000C9485000C9485002C
:100040000C943C020C9485000C94AC020C94860237
:100050000C9485000C9485000C9485000C9485000C
:100060000C9485000C94850000000008000201003B
:100070000003040700000000000000000000000072
:10008000250028002B0000000000240027002A0083
:10009000040404040404040402020202020203032E
:1000A0000303030301020408102040800102040836
:1000B00010200102040810204B0411241FBECFEFB2
:1000C000D8E0DEBFCDBF11E0A0E0B1E0EEE4F9E0A2
:1000D00002C005900D92A231B107D9F723E0A2E149
:1000E000B1E001C01D92A83FB207E1F710E0CDE5F5
:1000F000D0E004C02197FE010E949A04CC35D107BC
:10010000C9F70E94DE020C94A5040C94000090E054
:10011000FC01EC55FF4F2491FC01E057FF4F849107
:10012000882399F090E0880F991FFC01EA57FF4F50
:10013000A591B491FC01E458FF4F859194918FB73C
:10014000F894EC91E22BEC938FBF089590E0FC01C2
:10015000E859FF4F2491FC01EC55FF4F3491FC010D
:10016000E057FF4FE491EE2309F43CC0222339F11C
:10017000233091F038F42130A9F0223001F584B514
:100180008F7D12C0273091F02830A1F02430B9F4CF
:10019000809180008F7D03C0809180008F77809355
:1001A00080000DC084B58F7784BD09C08091B000F8
:1001B0008F7703C08091B0008F7D8093B000F0E016
:1001C000EE0FFF1FE458FF4FA591B4919FB7F8942D
:1001D000611104C08C913095382302C0EC913E2B04
:1001E0003C939FBF08953FB7F89480915703909137
:1001F0005803A0915903B0915A0326B5A89B05C096
:100200002F3F19F00196A11DB11D3FBFBA2FA92F95
:10021000982F8827820F911DA11DB11DBC01CD0112
:1002200042E0660F771F881F991F4A95D1F70895FE
:10023000CF92DF92EF92FF920F931F93CF93DF93B2
:100240006C017A018B01C0E0D0E0CE15DF0581F0B2
:10025000D8016D918D01D601ED91FC910190F08155
:10026000E02DC6010995892B11F02196EECF7E0174
:10027000C701DF91CF911F910F91FF90EF90DF9019
:10028000CF900895089580E090E00895FC01538D8B
:10029000448D252F30E0842F90E0821B930B541760
:1002A00010F0CF96089501970895FC01918D828DED
:1002B000981761F0828DDF01A80FB11D5D968C91BA
:1002C000928D9F5F9F73928F90E008958FEF9FEFC5
:1002D0000895FC01918D828D981731F0828DE80F81
:1002E000F11D858D90E008958FEF9FEF0895FC013B
:1002F000918D228D892F90E0805C9F4F821B910908
:100300008F73992708958BE593E00E94770121E090
:10031000892B09F420E0822F0895FC01848DDF01F0
:10032000A80FB11DA35ABF4F2C91848D90E0019668
:100330008F739927848FA689B7892C93A089B18957
:100340008C91837080648C93938D848D981306C0F8
:100350000288F389E02D80818F7D80830895EF925C
:10036000FF920F931F93CF93DF93EC0181E0888F6F
:100370009B8D8C8D981305C0E889F989808185FD56
:1003800026C0F62E0B8D10E00F5F1F4F0F73112745
:10039000E02E8C8DE8120CC00FB607FCFACFE8896E
:1003A000F989808185FFF5CFCE010E948D01F1CFC3
:1003B0008B8DFE01E80FF11DE35AFF4FF0829FB7CE
:1003C000F8940B8FEA89FB89808180620AC09FB70D
:1003D000F894EE89FF896083E889F98980818370C8
:1003E000806480839FBF81E090E0DF91CF911F9177
:1003F0000F91FF90EF900895CF93DF93EC01888DDC
:100400008823C9F0EA89FB89808185FD05C0A88918
:10041000B9898C9186FD0FC00FB607FCF5CF80819E
:1004200085FFF2CFA889B9898C9185FFEDCFCE01E8
:100430000E948D01E7CFDF91CF91089580E090E099
:10044000892B29F00E94830181110C9400000895EA
:10045000009769F0FC0101900020E9F73197AF01A6
:10046000481B590BBC018BE593E00C94180180E00C
:1004700090E008950E94A0041F920F920FB60F9271
:1004800011242F933F938F939F93AF93BF938091AA
:10049000530390915403A0915503B09156033091AA
:1004A000520323E0230F2D3720F40196A11DB11D27
:1004B00005C026E8230F0296A11DB11D209352030B
:1004C0008093530390935403A0935503B093560322
:1004D0008091570390915803A0915903B0915A030A
:1004E0000196A11DB11D8093570390935803A093CB
:1004F0005903B0935A03BF91AF919F918F913F9150
:100500002F910F900FBE0F901F9018951F920F9272
:100510000FB60F9211242F933F934F935F936F93D6
:100520007F938F939F93AF93BF93EF93FF938BE54D
:1005300093E00E948D01FF91EF91BF91AF919F9148
:100540008F917F916F915F914F913F912F910F907C
:100550000FBE0F901F9018951F920F920FB60F921B
:1005600011242F938F939F93EF93FF93E0916B034D
:10057000F0916C038081E0917103F091720382FD30
:1005800012C09081809174038F5F8F7320917503E7
:10059000821751F0E0917403F0E0E55AFC4F958F1B
:1005A0008093740301C08081FF91EF919F918F919F
:1005B0002F910F900FBE0F901F901895CF93DF9340
:1005C000CDB7DEB7A1970FB6F894DEBF0FBECDBF93
:1005D000789484B5826084BD84B5816084BD85B51E
:1005E000826085BD85B5816085BD80916E0081602A
:1005F00080936E00109281008091810082608093D0
:1006000081008091810081608093810080918000D1
:100610008160809380008091B10084608093B100FC
:100620008091B00081608093B00080917A008460F6
:1006300080937A0080917A00826080937A00809122
:100640007A00816080937A0080917A00806880933C
:100650007A001092C10080E10E9487008FE00E9422
:10066000870061E080E10E94A60060E08FE00E94C8
:10067000A600E2E1F1E01192119223E0E235F207E7
:10068000D1F7E0916B03F0916C0382E08083E091FD
:100690006703F09168031082E0916903F0916A03A7
:1006A00080E1808310927303E0916F03F0917003F7
:1006B00086E08083E0916D03F0916E03808180611C
:1006C0008083E0916D03F0916E0380818860808368
:1006D000E0916D03F0916E03808180688083E091EA
:1006E0006D03F0916E0380818F7D80839AE0892E67
:1006F000912CA12CB12C61E080E10E94A60060E069
:1007000080E10E94A60061E08FE00E94A6000EE159
:1007100010E061E080E10E94A60060E080E10E94BC
:10072000A60001501109A9F760E08FE00E94A60021
:1007300008E510E061E080E10E94A60060E080E151
:100740000E94A60001501109A9F702E111E083E41B
:1007500080937C0080917A00806480937A008091FD
:100760007A0086FDFCCF809178002091790090E09E
:10077000922BF801819391938F0161E080E10E94B7
:10078000A60060E080E10E94A60082E593E0801769
:100790009107E9F661E080E10E94A60002E111E024
:1007A000F801219031908F016101330CEE08FF08B0
:1007B000F7FE20C06DE28BE593E00E94AF01222797
:1007C0003327A9012C193D094E095F0919A2CE0151
:1007D00081967C01CA01B901A50194010E947804A7
:1007E000605DF70162937F012115310541055105D7
:1007F00089F715C0A701960119A2CE0181967C0147
:10080000CA01B901A50194010E947804605DF70155
:1008100062937F01211531054105510589F7C70113
:100820000E9428026CE28BE593E00E94AF01F3E0A6
:1008300002351F0709F0B4CF6AE08BE593E00E9410
:10084000AF010E94F3006B017C0188EE482E83E02B
:10085000582E612C712C0E94F300DC01CB018C1905
:100860009D09AE09BF09883E9340A105B10598F3E3
:1008700021E0421A51086108710888EEC80E83E031
:10088000D81EE11CF11C411451046104710419F7D4
:100890000E941E0230CFEBE5F3E01382128288EE55
:1008A00093E0A0E0B0E084839583A683B78384E0DF
:1008B00091E09183808385EC90E09587848784EC38
:1008C00090E09787868780EC90E0918B808B81EC1D
:1008D00090E0938B828B82EC90E0958B848B86ECFE
:1008E00090E0978B868B118E128E138E148E089546
:1008F000A1E21A2EAA1BBB1BFD010DC0AA1FBB1F24
:10090000EE1FFF1FA217B307E407F50720F0A21B95
:10091000B30BE40BF50B661F771F881F991F1A9402
:1009200069F760957095809590959B01AC01BD012C
:10093000CF010895EE0FFF1F0590F491E02D09946B
:0E09400081E090E0F8940C94A504F894FFCFA9
:10094E0000000000AF0118014601FC0177015501BE
:02095E0069012D
:00000001FF
